:10000000003C0220C1700100817C0100817C010064
:10001000817C0100817C0100817C0100817C0100E8
:10002000817C0100817C0100817C0100817C0100D8
:0C003000817C0100817C010051AE0000C9
:04003C0000000000C0
:10004000B8B0DFF85CAA0AF10401504613F026FEAE
:100050000AF10C0019F016FCDFF8487ACAF808001B
:100060005021384619F030FE00204FF6FF7150281D
:1000700002D039520A30FAE7DFF82C0A4FF49861BF
:1000800019F022FEDFF8240A4FF4907119F01CFEDB
:10009000DFF81C0ADFF81C1ADFF81C5A00260022C1
:1000A0001523CAE9066600901020A84744F268208C
:1000B000FB211B224FF4A473CDE90010DFF8FC19DB
:1000C0001020A847DFF8F8191020A8479AF8001068
:1000D000DFF8F0495020A047DFF8EC190246102065
:1000E000A847DFF8E819102001224FF0010BA847BC
:1000F000DFF8DC1910204FF0FF32A84719F0D8FDC7
:10010000DFF8D01902461020A8478DF88060DFF88C
:10011000C86903204FF002080DF1A0094FF4806276
:1001200001238DF838B08DF83CB08DF840001020D8
:100130008DF8A080CDF800903146A84710A8314630
:1001400040F2034219F0A8FD20A8314640F20242D5
:1001500019F0A2FD0EA8314640F2064219F09CFDAE
:100160000FA8314640F2114219F096FDDFF86C6994
:10017000DFF86C19102006F11002A847DFF86419A7
:10018000102000220023A84719F092FDDFF858192B
:1001900002461020A84719F08BFD0346DFF84C09F2
:1001A000DFF84C190822CDE900801020B046A8479E
:1001B0004FF08040002114F0CBF9DFF83839FF21EF
:1001C0000022706018F0B1FFDFF82C0900680B9076
:1001D00009F102000890381D0990DAF804000021A6
:1001E0004FF040424FF0FF330CF00EF90028F4D0EE
:1001F000074600200DF13F010E900FA80EAA16F041
:10020000D2FC002840F0D781BDF83C00102840F017
:10021000CD819AF800009DF83F10814240F0C681E0
:100220000E9E4FF6FF713088884200F0C081C1B247
:10023000912900F0C880B02900F0B780D02940F0A3
:10024000B681B078072800F2E280DFE810F00800FD
:10025000AF01AF01AF01AF012301F8000701DFF8E3
:10026000D018DFF8D028DFF8504810200023A0472E
:10027000DFF8C41810204FF48602A0474FF44870EE
:10028000DFF8B81801220123CDE900001020A047B3
:10029000DFF8AC9806200DF1A0080022ADF8A00010
:1002A000102043464946A0478DF840B010AD1020BD
:1002B000494601222B46A0471020494606222B46DC
:1002C0008DF840B0A04740F602004946032243465D
:1002D000ADF8A0001020A047A146DFF868485025DF
:1002E00010200122022300952146C84710202146F4
:1002F000012203230095C847DFF8E007D0F8048007
:10030000B01D15F03DFBDFF84038DFF840480090A5
:100310004046DFF8C887FF210022A047002013F0E5
:1003200025FB02684146D8F8046041F8082F808810
:100330008880084615F024FBDFF81438009030461A
:10034000FF210022A047DFF80C58062040F6B83203
:100350000023CDE900B00AF12000294613F080FF08
:10036000D8F80400DFF8F037FF210022A047002072
:10037000DFF8E8170022642300901020C847082007
:10038000294642F210720023CDE900B00AF1440080
:1003900013F066FF42F21071D8F80400DFF8C0379E
:1003A00000220091FF21A04700E170881AF056F961
:1003B00000283ED17078162831D13179D8F8040060
:1003C000DFF8443733E0000A10281BD00E2840F035
:1003D000ED80B08841F20541884240F0E780DFF8C7
:1003E000FC06D0F80480B06890F90340B0F8010032
:1003F00017F01EFCCDE900044046DFF8E086DFF888
:100400000037CFE0D8F80400DFF8F036CAE015284E
:1004100040F0CC80D8F80400DFF81037C2E0307923
:100420007F2806D13189D8F80400DFF8D83619F0D2
:10043000ECFB317906F108001AF00CF9B6E0B1884E
:10044000DFF8602600204FF6FF74082800F02683AE
:1004500013888B422FD00A320130F6E7B288DFF8DA
:10046000AC16102028AB10F029FD002840F09E802B
:100470000898D8F8046015F083FABDF8B410DFF8D6
:100480009036002201EB81014900CDE900013046A0
:10049000FF2189E07189099A06F1040900204FF6CD
:1004A000FF74082800F0FA8232F8043CA34225D0F9
:1004B0000A320130F5E798F800101480013910F085
:1004C000F80F88F8001040F0E98200F00700DFF82C
:1004D000D415D8F8049000EB800001EB4000043004
:1004E00015F04EFAB179DFF830460022172A36D0DF
:1004F00014F832308B424DD00132F7E722F8041C59
:10050000D9F800101160B9F80410918098F8001023
:10051000013110F0F80F88F8001040F0BF8200F0B1
:100520000700002150440176D8F804000D90484699
:1005300015F026FA0C90484615F096FC0A90DFF864
:1005400068052124013C0DD0494600F1260518F02C
:10055000F1FC00282846F5D115F9010C03E0DFF87D
:10056000B4251AE000200C99DFF8B4350022009180
:100570000A99CDE901100D98FF2118F0D6FD728976
:10058000DFF8A015102010F099FCD8F80400DFF86F
:10059000983507E004EBC2025268DFF880358DE839
:1005A00007004846FF21002218F0BFFD0E9E16B13D
:1005B000304619F0B9FB78007FF50FAEDAF8080085
:1005C00018F0ACFC00283FF408AE814600880138E2
:1005D000072800F23B82DFE800F0048838580DA5B8
:1005E000C27388F801B0DFF8D035FF210022D8F8B7
:1005F0000400FCE1D9F80440D8F80400627AE3680A
:10060000E688217ACDE90223DFF86435CDE900617F
:1006100019F04AFB304618F02BF807289CBF5044CD
:1006200080F818B0207A40B9607A30B9E06820B913
:10063000DFF84015304611F001FEDD48DFF83815CF
:100640003246002300901020A7E0D9F8045020A8DB
:100650001F2119F039FBE88AAA691044511C814214
:1006600080F08B801378002B00F087801944814242
:1006700000F28380911C5278013B02F0FE02082AAE
:1006800000F08E8051FA83F2E8E7D9F8040099F877
:10069000025006888478304617F0EAFF032D00F2F6
:1006A000D5810746DFE815F004009A0186018D0127
:1006B000D8F80400DFF8E834FF210022009696E124
:1006C00042F21071D8F80400DFF8D83419F09DFA1E
:1006D00098F80100002853D088F802B0DFF8C83439
:1006E000FF210022D8F804003FE00020DFF8C034EA
:1006F000FF21002288F80100D8F8040018F015FD49
:1007000098F80200002800F0A1810024DFF8A4344A
:10071000FF21002288F80240D8F8040018F005FDF7
:10072000009435E0002013F021F908F10801064695
:1007300018F000FC002800F08981D8F804703046D9
:1007400015F01EF9DFF824340090384619F0ACFAA1
:10075000B088A8F80C003068C8F8080076E1D8F82E
:100760000400DFF80034FF21002218F0DEFCDFF87F
:10077000F813102010F0A2FB68E14FF0000B1DE011
:10078000D8F80400DFF8243419F08EFA0020009025
:10079000DFF8C81310200022642310F08FFB55E10E
:1007A000DEB21E201E2E28BF064620AC2046324652
:1007B00019F088FB0020A0559DF880B095F80CA09A
:1007C000B94E0D9505F10208FF240025202DE7B252
:1007D00011D03046414618F0ADFB48B3FF2F07D18A
:1007E000304618F0BEFA00284FF0FF3418BF2C46F0
:1007F00026360135EAE7FF2F27D02623AA4AD8F864
:10080000001007FB03F0115017FB0324B8F8040095
:1008100084F825A0A080A01DBBF1000F00F01F816F
:1008200020A91E2217F023F9002084F824000CE0F0
:10083000BBF1000F07D0B01D20A91E2217F017F939
:10084000002086F8240086F825A0DDF834A00020DA
:100850009AF800608DF8A000F0074FEA86740ED178
:10086000002C28AD18D4700722D4F0062CD4300701
:1008700036D4D84928463F2217F0F9F835E028AD9C
:1008800019F064FACD4919F0B6F9002C09D519F020
:100890005DFACB4919F0AFF919F058FAC94919F0C6
:1008A000AAF9700709D519F051FAC54919F0A3F949
:1008B00019F04CFAC44919F09EF9F00609D519F05F
:1008C00045FABF4919F097F919F040FABF4919F0F4
:1008D00092F9300709D519F039FAB94919F08BF9AD
:1008E00019F034FABA4919F086F9002429463F2252
:1008F0008DF8DF4010A817F0BAF8B7488DF87F40A0
:10090000BBF1000F20AC08BF0446744840680C904F
:10091000404615F035F807469AF801009AF90C5050
:10092000DFF8F0B1032802D8AC4951F820B09AF8AA
:10093000080018F00BFB56468246707A18F006FB4A
:10094000CDE90074CDE9025BCDE904A010A8A44B69
:10095000FF21002206900C9818F0E7FB5F48DFF8B3
:1009600040A14FF0010B0078072869D83078C00704
:1009700066D016F061FF0B994C4E00244FF0FF3506
:1009800048434FF47A71B0FBF1F7182C32D030465F
:1009900018F0E7F918B1002D48BF254605E03046AC
:1009A000414618F0C7FA00285CD00C360134ECE759
:1009B00040E20100744A002C7449D8F80400744BDA
:1009C00005E06E4A002C6E49D8F804006D4B08BF54
:1009D00011460022CDE90016FF2108E0002C49D085
:1009E000D8F804006B4BFF210022CDE9004618F037
:1009F0009CFB2BE00D9E25EAE574D8F800102B4AED
:100A000004EB440042F8201002EB8000B8F8041018
:100A10008760818031484468404614F0B1FF714BD3
:100A20000090204619F040F9707840F6B8314346FE
:100A3000CDE900B16C4900F00102102010F03EFA3F
:100A4000B06908B119F0D4F9DFF89080D9F8040042
:100A500008B119F0CDF9484619F0CAF9AEE5002100
:100A60000170F2E6B06841F270710D9E381A88424A
:100A7000C3D2E5E7D8F80400474BFF2100220096D7
:100A800018F053FB072FE1D80AEB0700007E00287F
:100A9000DCD14249304611F0D1FBD7E718F02CFCED
:100AA000401E0020583C002040240020303400200C
:100AB000C8220020992F0100BD0E01000D3D02103B
:100AC000397F011081760100F16C0210518701001D
:100AD000996801002D6D0210C55000009822002079
:100AE000F1820100C15A0100D96C0210E4230020F8
:100AF0004D9F00005CC3010050CE0100AFC8010053
:100B000041C9010014C901007CC80100F9DC0110D1
:100B1000D4C40100A4CD01000CBD01008FC30100AD
:100B2000E4C301009537010088C4010020C501001D
:100B30008961021017630100C5690110F5F9011000
:100B400095390110D5F4011096C801002B910100D0
:100B500038CA01008977010064C70100E1F4001080
:100B6000AFC40100BAC301009973010062C801005B
:100B700078C2010081C70100597001000DCE01004B
:100B8000B4CC01002AC70100F4CB0100BBCA0100AC
:100B9000E1C8010068C501000DC701008BC5010057
:100BA000F0C60100AEC50100B0C6010047C8010093
:100BB000B4CB010057C9010012CC01009CCC01004C
:100BC0009EC7010011CD010042CD0100F9CD010009
:100BD00039CD010032CE010025CD010014CB01003A
:100BE0003CC00100D8C701003561021038B586B09D
:100BF00004468DF805104FF6FF720120ADF8022073
:100C0000090ADFF8BC5AADF8000002238DF806107F
:100C10008DF8043069462A78204619F017FD162809
:100C200003D12978204619F00DFD07B030BD3EB53F
:100C300004000D461ED0DFF88C0A0068224619F029
:100C4000FDFCFF2815D000200090002301AA2946B2
:100C500020460DF0B1FC60B99DF8040000F06CF97D
:100C6000C00606D59DF8040000F066F910F00400F7
:100C700000D001203EBDFEB5154600F0B2FB15D1F7
:100C800000208DF80400DFF8387A9DF80400F97927
:100C900088421AD22A46214600F03EF800B10026CA
:100CA0009DF80400401C8DF80400EEE719F0C2FC2A
:100CB00050B100F09CFB40B99DF804002A46214643
:100CC00000F02AF8002600E014263046FEBD7CB570
:100CD0000D46044606214C43164620346A46082138
:100CE000204617F0A9F8A8B900F074F890B99DF85B
:100CF0000700002E14BF054320EA0505E9B2814232
:100D000006D08DF807506A460821204617F0A8F84B
:100D1000012076BD002076BD2DE9FC418046444689
:100D200006230D4616465C436A46082104F120005E
:100D300017F082F800284AD100F04CF8002846D17C
:100D400000F024FA040002D100F01DFA3FE0397AE5
:100D500008F1E00822468900404617F06DF890BB84
:100D6000204600F04FF828000ED13A7A9206120E73
:100D70000021204617F0C6FD28BB3A7A92000021D8
:100D8000204618F03BFB15E0214600F028F850B94A
:100D9000300004D02146002000F021F810B900F006
:100DA00013FC14E005808178B1420CD086700EB936
:100DB00000210180204600F025F8397A224689007A
:100DC000404617F04DF800F0FFFB012000E0002046
:100DD000BDE8F6810622FF21684617F093BDB0B545
:100DE000DFF8DC381F7A002200E0521CD4B2BC428B
:100DF00006D231F824508542F7D101EB8400B0BD12
:100E00000020B0BD10B50021DFF8B4280AE030F8AA
:100E10002130DB4320F8213000EB8103491C9C7812
:100E2000E4439C70137A9942F1DB10BD2DE9FE4F2B
:100E3000DFF88C580646287A0F469246984680007E
:100E400018F0BAFC5FEA000903D100F09CF90A200F
:100E500070E00C9C02974FF0060B37461BFB07FB1C
:100E6000029A08210BF1200016F0FAFF8DF8040019
:100E7000304600F099F82A7A9200FF21484618F08F
:100E8000BDFA9DF8040000904A46297A890006F1CF
:100E9000E00016F0E5FF009E02990643286A08224A
:100EA00000EBC70018F0B4FAF4B11022002120467C
:100EB00017F028FDC0B9029988790023224600F076
:100EC000010019F0B3FB00281CBF9DF93C0000286D
:100ED00003D0DFF8F41701200870224610210BF12F
:100EE000230016F0BDFF06435FEA0A0205D01C216D
:100EF0000BF1210016F0B4FF06435FEA080205D0AB
:100F00001C210BF1220016F0ABFF06430D9A4AB1EB
:100F100010210BF1240016F0A3FF06430EAA00F0E7
:100F20002DF90643A87D08B100F096FA484618F05E
:100F30004BFCF0B2BDE8FE8FE0B5062358436A468D
:100F40000821203016F078FF10B99DF807000EBD7B
:100F5000FF200EBDDFF86827107808210CF058BE7E
:100F600038B500F081F816E0286A062300EBC402C9
:100F700013FB04F3082103F1200016F05DFF40B1DC
:100F800000F081FA18F03AFA2A6A02EBC400002154
:100F9000C171641CE4B2E9798C42E5DBA87D10B133
:100FA000BDE8314058E231BDF8B5DFF81417DFF87D
:100FB0001C47CB79194600E01146CAB242B14A1E1D
:100FC0002568C9B20D4415F8011C8142F4D11346BD
:100FD000DFF8EC16C979DBB218464D1E07E017188A
:100FE000165C7F78175422680244401C5670A84251
:100FF0002268F4DBAB4204DABDE8F840052016F0C5
:101000002FBFF1BD70B500F02FF800E0641CE87947
:10101000E3B283420BD22B6AE6B20622FF2103EB36
:10102000C60017F06FFC0028F0D0E0B270BDDFF80A
:10103000A026117839B1DFF8940601680C782046B3
:1010400000F016F8204670BD38B5002000F00CF80E
:1010500003E0E0B200F00CF8641CEA79E1B29142DE
:1010600001D20100F5D032BD0024DFF8545670479C
:101070002DE9F84F4FF0060B1BFB00FB8EB08146AD
:101080000BF1200501AA0821284616F0D5FE0028FC
:101090006BD10622FF2101A817F034FC002864D18F
:1010A00000F074F85FEA000803D100F06CF80A2041
:1010B0005DE01C22FF2103A818F0A0F93A7A920003
:1010C000FF21404618F09AF90BF123060AAA1021D5
:1010D000304616F0B1FE60B91022FF210AA817F0C1
:1010E00011FC30B99DF80A0001A900F0010019F0C7
:1010F00099FA082200F03EF801AA0821284616F0C5
:10110000AFFE054603AA1C210BF1210016F0A8FE34
:101110008DF8000003AA1C210BF1220016F0A0FE9E
:10112000044603AA1021304616F09AFE064603AA8A
:1011300010210BF1240016F093FE824603AA00F062
:101140001DF89DF800100D43254335434AEA050577
:10115000397A05434246890009F1E00016F080FE25
:101160000543404618F030FB00E0002528460FB04C
:10117000BDE8F08FFF2101A818F040B904210BF160
:10118000250016F06DBE042016F006BCDFF83075A1
:10119000387A800018F010BB2DE9F84187B0FF20A5
:1011A0008DF80000DFF81875F87918F005FB0400D9
:1011B00003D1FFF7E8FF0A2030E01022FF2103A847
:1011C00018F01CF9FA79FF21204618F017F90622C9
:1011D000FFF7D0FF03AA1021022016F041FE0546BA
:1011E00003AA1021032016F03BFE05436A460121A5
:1011F000042016F035FE0646F9792246052016F041
:101200002FFE074601AA0621062016F029FE804679
:1012100000F0DAF935433D4348EA050008B0BDE87F
:10122000F081DFF89C244088117816F0A1BDF0B55C
:10123000A9B006460D46144619F0FCF908B9142069
:10124000A6E0A4220021684618F0D8F8ADF80060A6
:10125000DFF86C64F078F27B27998DF80400490878
:10126000307C8DF8A000530802F0010040EA4101F3
:1012700021F0020103F0010341EA4301100921F4C6
:10128000807100F0010041EA0021500921F4007151
:1012900000F0010041EA4021900921F4806100F052
:1012A000010041EA8021920821F0040102F00102CC
:1012B000707C41EA8201279102280CBF01200020A6
:1012C0000DF12607787419F0A9F9412807DB707C25
:1012D00000B108209DF8991008438DF89900F07C22
:1012E000B8B10121B974202206F188010DF139004D
:1012F00018F08EF8202206F1A8010DF1590018F01F
:1013000087F8202206F1C8010DF1790018F080F865
:1013100000E0B874707B8DF8050090B1DFF8B4730D
:10132000102207F110010DF1060018F071F89DF878
:101330009900082805D1102239460DF1160018F041
:1013400067F8307B8DF8260030B11022DFF8881363
:101350000DF1270018F05CF8307948B1022D18BF64
:10136000032D03D1279840F002002790012100E0CF
:1013700000219DF899000143B0788DF8991000B1D3
:10138000042001438DF899106846214619F042F96E
:1013900029B0F0BD2DE9FC41904600F022F80ED1B5
:1013A0000027DFF81C53E979F8B2884216D242468A
:1013B0002146FFF78CFC00B100267F1CF3E719F0F3
:1013C00039F950B100F013F840B99DF804004246D5
:1013D0002146FFF77CFC002600E014263046BDE8DD
:1013E000F68115264FF6FF7290420C467047002199
:1013F00000910023417901AA01F00101801D0DF047
:10140000DBB870B504460D4606204543082B88B06E
:10141000164603D1300758BF223500D521351C228E
:101420000021FFF7A8FE01AA1C21284616F004FDA2
:1014300080B99DF81E00C01F0A280BD29DF830000D
:101440000090F20801AB02F0010206F00101204613
:1014500018F03BFA08B070BD38B519F0D7F8FFF7AF
:1014600003FE0CE000F00FF817F04CFA28B9286AD8
:1014700000EBC401887919F0C5F8641CE4B2E8797E
:101480008442EFDB31BD286A0622FF2100EBC40055
:101490007047F0B5914E0446706885B04FF6FF7501
:1014A00038B9009602238E4A2946012019F0A6F881
:1014B0007060716819B30222FF200292002303902A
:1014C00001930DF112073288009704AB204605F016
:1014D00057FB60B99DF810009DF8111000EB012238
:1014E000100004D0706841892046FFF7C4FB3288A1
:1014F00070680023294619F07DF8706008B9012052
:1015000000E0002005B0F0BD3EB50C4600250146C8
:101510000095002301AA20460DF04EF838B99DF839
:101520000400FFF709FDC00601D401203EBD0020E4
:101530003EBD2DE9F0416B4F3C6806468846154696
:1015400003E02089B04224D02468002CF9D10C207B
:1015500018F032F9040019D0268184F80A8000209E
:101560002060E07245B10821284617F09DFB6060BD
:1015700018B900F029F80AE06060396811B93C60D8
:1015800004E0014608680028FBD10C600CB9152066
:1015900018E019F02BF808B1002013E00120E072E8
:1015A0002A4641463046FFF742FE04464448C06999
:1015B00000281CBF4368002B03D0002200213046C6
:1015C00098472046BDE8F081204618F0FDB838B5B0
:1015D00005464448046803E02089A84204D02468F2
:1015E000002CF9D1012032BDE07A012807D100F0AA
:1015F0005CF820B13248007804210CF009FBE17A54
:10160000491CE1722846C9B200F002F8002032BD40
:1016100038B5022904462A4D02D003290DD01EE018
:1016200042F6C921FFF7E2FA02001CBFE869002870
:1016300018D04368B3B105210CE042F6A621FFF7AC
:10164000D5FA01001CBFE96900290BD04B684BB1EA
:1016500002460421204601B0BDE830401847BDE8ED
:10166000324000E031BD10B51E4A1468002101E08F
:10167000214624686CB123898342F9D1206800296E
:101680000CBF10600860606808B118F09DF8FFF7A3
:101690009BFF002010BD024604201249096819B1C1
:1016A0000B899342FAD1C87A70470E48006828B176
:1016B000006818B1C17A0029FAD17047002070473C
:1016C000741A0020680F0020EB4200207C420020AA
:1016D000EA4200206C4000209C4000203442002060
:1016E00074CE01008042002038B584B0044618F062
:1016F000A1FF0622417901F001018DF80E10811D34
:1017000002A817F085FE0020009000239DF80E101F
:1017100001AA02A80CF050FF9DF80400FFF7A8FCF6
:1017200005460521204618F05DFF284605B030BD6E
:101730002DE9FE4FDFF810687168019119B9BDE815
:10174000F74F18F04BBF0978DFF80098DFF8007802
:1017500046F2A81541F64C58012918BF02290DD0B0
:10176000042918BF082909D0102918BF202905D03D
:10177000402918BF802900F0E781DEE318F0E2F984
:101780000028FAD0012015F02FF920B1012015F022
:1017900063F915F0D5F8082015F026F920B10820D6
:1017A00015F05AF915F0CCF8102015F01DF920B1FC
:1017B000102015F051F915F0C3F80198007802F0E7
:1017C0009DF80090002460B1007801281CBF082813
:1017D000102802D10098446803E0009815F0B0F892
:1017E0000446DFF870174878002800F00B8118F0E5
:1017F00075FB17F0F9FD8246DFF85817DAF800009C
:101800000190D0F804B09AF80600C8700CB902250F
:1018100004E00199009818F05FFB054600992A46FC
:10182000504618F01DFBA84203D0032800F08A831D
:101830000546022D00F0B78000980178012908D0F4
:10184000022914D0042960D008290CD0102957D0BF
:1018500073E325B918F0BEFE8044C4F80880012067
:10186000B07011214FE00820B07012214BE005202C
:101870003870DDB918F0AEFE8044C4F808806169A4
:10188000A268DFF8D4060368DB69981DDFF8CC3660
:101890001D7805EB8505435B40F6C41000FB032271
:1018A0000A62A068DFF8B0160A6810615246DFF8D5
:1018B000A8060168CD69DFF8A4160B78A81D03EB14
:1018C0008303C15A00980EF0A3FC61696269D27F5C
:1018D00002F0EF02CA77002861696269D27F42F0A4
:1018E0008002CA770CBF0121022162696369DB7F34
:1018F00003F0F0031943D177616948620221C5E022
:101900001020B0701321397049E206203870DDB91B
:1019100018F060FE8044C4F808806169A268DFF8AE
:10192000400603685B6903F10C00DFF838361D7868
:101930002D01435B40F6C41000FB03220A62A0683D
:10194000DFF81C160A68D060DFF814562868007C9F
:101950000EF014FE29684D69DFF808160B7805F1C2
:101960000C001B015246C15A00980EF051FC6169EF
:101970006269D27F02F0EF02CA770028616962696A
:10198000D27F42F08002CA770CBF01210221626936
:101990006369DB7F03F0F0031943D1776169486223
:1019A0000420B070FBE10198017880290DD1082056
:1019B000DFF8B41538700A78DBF81400012A1ABF72
:1019C000D9F824100978012114E0072038709AF81A
:1019D000060017F0A9FE0446207BC10700F1DE8057
:1019E000DFF884050178DBF8140001291CBFD9F861
:1019F00024104978C1729AF80600DFF858158870EB
:101A0000019896E2009800282DD00146012200207E
:101A100018F026FA032815D000980199009A00784A
:101A2000DFF83CA5914212D1012809D002280DD03F
:101A3000042800F08380082802D0102806D002E095
:101A4000002C03D17EE2002015F0A6FFA7E10128BB
:101A500040F6C41908D002281FD004284AD008280C
:101A600016D0102840D068E2002CEBD018F0B2FD60
:101A70000146A068691816F09BFE20B918F0AAFD6F
:101A80008044C4F80880112038700121B17086E1CB
:101A9000002CD7D0B07012222AE005203870022125
:101AA000B17018F097FD0146A068691816F080FE25
:101AB00008B100F074B918F08DFD8044C4F80880B6
:101AC0006069A168DFF890241568ED69AB1DDFF847
:101AD0008C542E7806EB86069B5B09FB0311016292
:101AE000A068116808615AE1002CABD0B0701322D5
:101AF0003A7054E1062038700421B17018F06AFD84
:101B00000146A068691816F053FEB8B918F062FDD6
:101B10008044C4F808806069A168DAF800305E6922
:101B2000DFF840341D7806F10C022D01525B09FBF1
:101B300002110162A068DAF80010C860DAF800004B
:101B4000007C0EF01BFD2AE1DFF80814487800281D
:101B500000F04F8118F0C2F917F046FC8246DFF81A
:101B6000F413DAF8000002900222D0F804B09AF8D8
:101B70000600C8700021504618F072F9022801D002
:101B8000032816D001980178402913D19AF806004D
:101B900017F0CAFD0446207BC1070BD59AF8060052
:101BA00017F022FC052116F00BF9207B00F0FE0057
:101BB0002073C7E117F0C0FF10F01F0F3ED00120C7
:101BC00014F012FF20B1012014F046FF14F0B8FE0B
:101BD000082014F009FF20B1082014F03DFF14F094
:101BE000AFFE102014F000FF20B1102014F034FFDD
:101BF00014F0A6FEB07801F081FE00900078012874
:101C00001CBF0828102802D10098456803E00098FE
:101C100014F096FE05460DB9022404E002990098DE
:101C200018F05AF9044602220021504618F018F91B
:101C3000022802D00328BCD00446022C00F0B48055
:101C400000980178012908D0022917D004295FD013
:101C500008290ED0102956D0A3E024B918F0BAFCF8
:101C60008044C5F808801120387001210098B170B7
:101C70005FE10820B0701221397090E005203870C3
:101C8000B64FDFF8D492BCB918F0A4FC8044C5F874
:101C900008806969AA68D9F80030DC693B78A01D22
:101CA00003EB8303C45A40F6C41000FB04220A620B
:101CB000A868D9F8001008615246D9F80000C16937
:101CC00038788B1D00EB8000195A00980EF0A0FAAE
:101CD00069696A69D27F02F0EF02CA7700286969F0
:101CE0006A69D27F42F08002CA770CBF01210221CB
:101CF0006A696B69DB7F03F0F0031943D177696987
:101D0000486202204AE01020B0701321397046E08A
:101D100006203870934FBCB918F05CFC8044C5F8BD
:101D200008806969AA688E4803685C693B7804F199
:101D30000C001B01C45A40F6C41000FB04220A62C6
:101D4000A86887490A68D060854C2068007C0EF03E
:101D500015FC20684169387801F10C0300015246F6
:101D6000195A00980EF054FA69696A69D27F02F034
:101D7000EF02CA77002869696A69D27F42F080025F
:101D8000CA770CBF012102216A696B69DB7F03F00E
:101D9000F0031943D177696948620420B070009854
:101DA000C7E0002015F0F8FD02996F480A78802AF4
:101DB0000DD10821397000780128DBF8140008BF24
:101DC00001210FD0D9F824100A78C2720BE0072144
:101DD000397000780128DBF814000EBF0121D9F812
:101DE00024104978C1729AF806005A4988700298FE
:101DF0009FE017F0A1FE10F01F0F3AD0012014F061
:101E0000F3FD20B1012014F027FE14F099FD082005
:101E100014F0EAFD20B1082014F01EFE14F090FD2D
:101E2000102014F0E1FD20B1102014F015FE14F084
:101E300087FDB07801F062FD814699F80000012825
:101E40001CBF0828102802D1D9F8044003E04846F6
:101E500014F076FD044699F80000012840F6C41AF3
:101E600008D0022817D004283CD008280ED010280B
:101E700033D067E0002C65D018F0ACFB8044C4F888
:101E80000880112038700121B17051E0002C59D028
:101E9000B070122124E00520387018F09BFB014639
:101EA000A068691816F084FCA8B918F093FB804468
:101EB000C4F808806069A168274A1568ED69AB1D00
:101EC000264D2D7805EB85055B5B0AFB031101624E
:101ED000A06811680861022029E09CB3B07013214A
:101EE000397025E00620387018F074FB0146A068B0
:101EF0001B4F691816F05CFCA0B918F06BFB80440E
:101F0000C4F808806069A1683B685B6903F10C0252
:101F1000144B1D782D01525B0AFB02110162A0686F
:101F20003968C8603868007C0EF028FB0420B07067
:101F30004846BDE8FE4F17F00BBEBDE8FE4F00203F
:101F400015F02ABDBDE8F78F0442002038C2010019
:101F5000C80F0020780E0020500F0020D80F00205E
:101F6000540F0020D90F0020CC0F00202DE9F04F96
:101F7000054687B0A978DFF8E866002710294FF0FA
:101F8000060A3CD8DFE811F0110067036703670316
:101F900067033C00CB0067036703C6021101FC0026
:101FA000170367039802DD025F036878002826D1D3
:101FB00018F00CFB044618F005FB054615F0AAFCCA
:101FC0008DF8000022461021022015F049FF2A4614
:101FD0001021032015F044FF6A460121042015F06A
:101FE0003FFF9DF80000012818BF032807D10120FA
:101FF00011F0BCFC02460621062015F031FF2AE351
:1020000068780028FBD195F80CB06C89009000230B
:10201000E97801AA01F00101281D0CF0CDFA002891
:102020004FF0010871D19DF80400FEF785FF81464D
:10203000BBF1080F08BFB846307A800017F0BCFB30
:10204000050003D1042015F0A7FC04E370780228F2
:102050000CBF0120002000905B469DF804104A460A
:102060002046FFF7CEF91422002102A817F0C6F986
:102070009DF804001AFB00F002AA1021243015F08C
:10208000DBFEA8B91022FF2102A816F03BFC78B9AC
:102090009DF804001AFB00FA06AA04210AF12500A3
:1020A00015F0CAFE02AA09F00101204618F086FACE
:1020B000317A9DF804002A468900E03015F0BCFE14
:1020C00098B92846FEF79EFEBA4609E005EB800067
:1020D000018819B18278204616F0E7FB0AF1010A5F
:1020E000317A5FFA8AF08842F0D3B07A30B95FEA89
:1020F000897003D53178204615F03AFE9DF804002A
:10210000FEF752FF284617F05FFB7078022805D1D2
:10211000B8F1000F02D0204611F03CFB9BE2A888EA
:10212000FFF7A1FA18F046FA0028F7D1F07D012850
:1021300008D1FEF789FFF279706AF775002117F070
:102140005DF917E0307E012803D1FFF725F83776D7
:1021500010E000240AE0706AE5B2415D012904D173
:10216000E0B2FEF785FF716A4F55641CE0B2F17969
:102170008842F0D3502016F05BFBFEF7F1FE6AE2D6
:1021800018F034FA00280CD0F06900281CBF04684D
:10219000002C07D0286900906B7B2A7B6989E81C9A
:1021A000A04757E2688901214AE2687800240028A4
:1021B00040F0DA80A879C10740F1D68008220021DA
:1021C00005A817F01BF9A88818F034FA040000F0ED
:1021D0008E806F694FB30622002107F1110016F0BF
:1021E00091FB68B310220021384616F08BFBD0B962
:1021F000387C00F001084FF0000909F1010987F867
:1022000011900020009000230022414607F11100A8
:102210000CF0D2F900285FFA89F002D10028ECD145
:1022200001E000280CD1002068610622607900F0EE
:1022300001008DF81A00A11D05A817F0E9F81FE0AC
:102240006F69EFB1387C00F001008DF81A000622AA
:1022500007F1110105A817F0DBF86079012805D115
:102260000622A11D04F10C0017F0D2F8062207F196
:102270001101A01D17F0CCF8387C40F0020060710D
:10228000A879410720794CBF40F0020000F0FD0022
:102290002071A9790A0754BF00F0DF0040F0200048
:1022A0002071A8799DF81B10DFF8B883800800F032
:1022B000010008438DF81B004FF0FF09A979C908F8
:1022C00001F0010140EAC1008DF81B00FF2469699B
:1022D0001E2779B31022684617F09AF81021684635
:1022E00018F064F94FF0000BDFF87C930CE0FFF777
:1022F000DCF90028D5D0307804210BF089FCD0E738
:102300000BF101005FFA80FB99F80000834510DAB9
:10231000D8F8001017FB0BF00A5CFF2AF0D0084435
:1023200000F10D011022684616F0B0FC0128E7D13B
:102330005C46A1460020009000239DF81A1004AAD4
:1023400005A80CF039F9B9F1FF0F5DD034285BD145
:10235000707D30B3012857D1A888052118F042F9C3
:102360000124A888FFF77FF968780B2804BFA888A4
:10237000FFF7BAF9F06900281CBF4368002B0FD0A3
:102380006A78A888012198476878002808D1A87938
:10239000C10705D52246F469A888636803219847D8
:1023A00051E1D8F80000002117FB09F90091002342
:1023B00010F80910401C04AA48440CF0FDF818BBA2
:1023C0009DF81000FEF754FEF0B9FEF7C9FDFEF7C8
:1023D00019FE8DF81000E86800280CBF0021016983
:1023E000002201900392029105A9686900902B696F
:1023F000AA689DF81000FEF719FD0446A888FFF7AB
:1024000048F8200046D14BE00020009000239DF8C2
:102410001A1004AA05A80CF0CFF820B1FEF7F2FDBF
:102420008DF8100019E06869B8B19DF810001AFB2A
:1024300000FA6A4610210AF1230015F0FDFC60B98C
:102440001022FF21684616F05DFA30B99DF81A0097
:1024500005A900F0010018F0E5F89DF81000F179E9
:10246000884227D2E86800280CBF002101690022B9
:1024700001900392029105A9686900902B69AA68EE
:102480009DF81000FEF7D2FC0446A888FFF701F87B
:10249000200005D09DF81000FEF7EAFDFEF760FD74
:1024A000200008D1707A0028A8887FF45BAFFFF77E
:1024B0008EF859E7152454E7687806281FD1A888B4
:1024C00018F0B8F8D8B1317D491E032917D8DFE8D4
:1024D00001F0020E08134179A8880022FFF729F8BD
:1024E0000DE00022002140F2094002F0EBFDA88837
:1024F000052118F077F802E0A888FFF7F5F8F069F1
:1025000000281CBF4368002B03D06A78A8880221EA
:1025100098479FE000970023E97801AA01F00101A4
:10252000281D0CF049F80028F3D19DF804001AFB8F
:1025300000FA05F10C0204210AF1250015F090FCC7
:1025400088E0F06900281CBF4368002B03D0A888EE
:10255000002200219847707810B9A88805216FE003
:10256000A88818F067F8040075D0A87AC10712D5BA
:10257000009700236179002201F00101A01D0CF0F9
:102580001BF800281EBF60790028012803D0E868E6
:10259000C0F3402028B1707C022807D1A87A010737
:1025A00004D4A888032117F0FDFF54E06179A888BE
:1025B00005F108022CE02F7BAD88284618F03AF888
:1025C000040047D018F012F8002843D100900023EF
:1025D000617901AA01F00101A01D0BF0EDFF50BBD4
:1025E0009DF80400FEF7A8FCFF280ED0790700D460
:1025F000B8B107F00C07042F11D0082F0BD00C2F07
:102600000FD100F0090109290BD061790022284679
:10261000FEF78FFF1EE010F0090F02D1F5E7C107AA
:10262000F3D501220092A37C9DF8041002462846AF
:10263000FEF7E7FE0EE070780028E6D10521284677
:1026400017F0B0FF06E0FFF730F818B1307804213A
:102650000BF0DEFA0127384607B0BDE8F08F00BF67
:10266000741A0020680F0020E54200202DE9F04F89
:1026700085B00D460295044615F8011B8DF8011032
:102680000022DFF8E41488788DF8002004F1660B4E
:1026900017F04AF801902C219DF80100DFF8CC24B6
:1026A000032804F1F40604F5B07A04F59C7704F5E8
:1026B000C87804F2171900F0E180072800F01382AF
:1026C000082818BF092811D00C2800F0D7810F283E
:1026D00011D0112800F04481182800F092811A28A6
:1026E00000F057811B2800F07C811AE22946204621
:1026F00010F0B6FC15E2707ADFF8748481070AD412
:102700000F2089F80200204617F048FF002872D1F8
:1027100098F80000DCE12878697800EB01223A8221
:10272000A878E97800EB01227A822879697900EBB0
:102730000122BA82A879E97900EB0122FA82297A8A
:102740003976687AA97A00EB01227A83E87A297BC4
:1027500000EB0122BA83687BA97B00EB0122FA839C
:10276000E87B297C00EB01223A84687CA97C00EBA1
:1027700001227A84E87C297D00EB0122BA84687DFD
:10278000A97D00EB0122DFF8EC03FA8401788A06C8
:1027900058BF4FF01A0A13D504F5AA700490798B2C
:1027A0000391387E029021890191F88A0090BB8ABA
:1027B0007A8A398A204617F0EDFEE8B14FF01E0AFA
:1027C000707A41070AD40F2089F80200204617F0DA
:1027D000E5FE00280FD198F8000079E152460F215C
:1027E000204617F0D3FEF88A0090BB8A7A8AA17936
:1027F000504611F089FD72E104F18600798A8180EA
:102800000023BA8AC2800222F98A018102704380C1
:10281000A18EC91DABF81E10628E8188B1EB520FDC
:1028200002BFC188A28E914202BF0089E18EB0EB47
:10283000111F21D09BF81000012804BF9BF8110044
:102840000F280CD09BF8150000281CBF9BF8110026
:102850001A2804D00F218BF81A10FE217CE0FC21ED
:10286000204617F039F8F88A0090BB8A7A8A398AAC
:10287000A07917F087FE32E110216DE0707AC10770
:1028800009D431781A200129707002D1FF220D215C
:102890003DE00D2160E000208BF800008BF8060081
:1028A000012232712946082204F1B00017F066FEB9
:1028B0000146022204F1B80017F060FE04F1A807F7
:1028C00001460822384617F059FE054608213846C9
:1028D00017F06CFE04F19C0704222946384617F0D5
:1028E0004DFE0421384617F061FE04F1A00017F0F8
:1028F00041FE04F1980017F039FE9F48018841F02D
:10290000800101803078012805D1FF220421204672
:1029100017F028FEE3E09BF811600F2E18BF142E6D
:1029200007D00E2E18BF0C2E03D01A2E18BF162E4D
:1029300011D19BF81070FF220421204617F012FEDF
:10294000012F06D18BF81A601A2E14BFFD21FB212E
:1029500002E0314600E00421204616F0BDFFBEE053
:1029600028788AF800001A286B788AF8013040F03D
:10297000D8801668A379701C4B430026C654106893
:10298000A27911FB02F101440E71A1799AF80100BC
:10299000C0E0A77910682B784F43074403F01F0667
:1029A00017F8210F9B0938B17878D840C00703D5B4
:1029B00098F80600042805D120221A21204617F095
:1029C000E5FD8CE0FE701068A27911FB02F1014474
:1029D000204681F82330002117F04CFA0028F0D16E
:1029E00074E0A37910684B430344D88808B90026E3
:1029F0005E701068A27911FB02F101440020087199
:102A00006DE068782978814204BF014011F0070F1A
:102A10006DD19BF81100162806D198F80620A179EF
:102A2000134600200AF060FF022188F802100120FE
:102A300001994877012398F8060098F80A1088F859
:102A40000000BAF81C2017F089FD0146BAF81800FA
:102A5000884208D3BAF81C2098F80A1098F80000A9
:102A6000012317F07BFDAAF82E00012198F8080039
:102A700040F0400088F80800397030E0707E01288E
:102A800010D015F8011B31770222294604F5897010
:102A900017F074FD0146022204F58A7017F06EFDEE
:102AA000012070769BF8060030B93D21012289F89B
:102AB000011089F8002012E0F07E002804BFB07EEB
:102AC00000280CD1204617F045FD30B92848007881
:102AD0004FF480410BF09CF801E00120F0760121D9
:102AE0008DF8001021E02B780F2B16D01A2B18D15F
:102AF000A37910684B43034400205870A3791268EF
:102B000011FB03F1114408711A20F17A01F0FB0165
:102B1000F172A17909F097F8E1E7707A00F0FD0011
:102B200070722046029917F011FD9BF811001A28C7
:102B300015D19BF8120017281CBF1028FC280ED1B5
:102B40009BF81060204617F0FDFC012E03BF1A20F1
:102B50008BF81A00FB211A21204616F0BDFE9DF8C5
:102B6000000005B0BDE8F08F780E00205442002030
:102B7000C70F0020200E00209C0F00202DE9FE4FE3
:102B8000DFF844B4DFF8447405469BF800000028E1
:102B90004CD0052872D0062800F07F80072818BF87
:102BA000082800F0F5800A2800F0E281112802D000
:102BB00013286FD000E2DFF818241078002117F0F6
:102BC000BDFC04001EBF606D407810F00C0F2DD0CE
:102BD000216DC0064CBF886CC86E016801F1080504
:102BE0000622A91C684616F013FC287800F00F0195
:102BF00005291BD145096946C0F3801017F09AFCDE
:102C0000002813D03968684617F090FC06463968EA
:102C100004F1380017F08AFC86420DD0606D4178CF
:102C2000C80604D440F2014017F07CFCCAE1607B86
:102C300040F002006073C5E13B681E2046439819CE
:102C400006226946C01D16F0E3FB606D4178C80698
:102C5000F1D5A17B0129EED1DFF878038178480610
:102C600005D5E90703D4206D41F20A4102E0206D49
:102C700041F20441418041834186A3E117F0F4F819
:102C80000028FAD10FF026F9012802D0012017F010
:102C900045FC97E113F0B3FB94E1DFF83C5328685F
:102CA00017F038FC0400F7D020790328F4D1207AFB
:102CB00000F00F01072938D1DFF820231168486997
:102CC000407A421E10425CD0607A04F10A031A5C1A
:102CD00002F03F02252A54DBA07A8209012A50D152
:102CE00010F03F0F4DD0087C16F07EFBE17ACA074A
:102CF0004CBF04F1110204F10B028B0748BF921D77
:102D00000B0748BF921CC90648BFD21C1278520953
:102D100016214A43B2498B180A31EB608A5A42861F
:102D200099898186DA89C2862BE000F00F00082895
:102D300027D1A07A810924D118B3A8480168087C5A
:102D400016F052FBE17A064688071AD5062201F0F2
:102D500001015143601800F10C01684616F058FB60
:102D6000207AC009694617F0E5FB50B1386800F1D8
:102D70000D01684617F0CAFB18B90521304615F059
:102D80001FF82079032802D0002014F005FE0FE17F
:102D9000944FB8780024FF281BD016F025FB8046FE
:102DA00008F16C09D9F8040017F0B4FB2A46017940
:102DB000032901D011000CD08368197801F00300B9
:102DC0008D06009003D50124009818B9CDE01000BD
:102DD000FAD0F7E05D7803F1020A34B31AF8010B78
:102DE000814B01902C2098F806C01E6810FB0CFC4B
:102DF00066444FF0010E86F805E0002A1E6898F838
:102E000006E006F11A0C019E10FB0EFE06F01F06EE
:102E10000CF80E6098F806601B6810FB06F018446A
:102E2000019BC3F38113C3761AD10098032808F2DB
:102E300017161AD0ADB199F8000068B108F1F40086
:102E40000278012A0DD19BF80020072A04D0082A15
:102E500004BFC078012804D13D2171700123337073
:102E6000B0E062480278012AFAD098F8940000286D
:102E70003CD030782D1F0128EDB2F1D053462A46C0
:102E8000404613F095FD00281EBF594908780028D8
:102E900013D13D2171700120564A307011780129FB
:102EA0000AD1554C20784FF4805113F029FE207838
:102EB0004FF480510AF0ACFE84E050490868804726
:102EC00001904FF4D07098F8062079684243881832
:102ED000002180F8411108F59E7001688079490849
:102EE0000EF0FCFD464A01981168884700980328B7
:102EF0001DD044494869007882070DD598F89400A0
:102F0000002814BF281D28464A691178CA0748BFFF
:102F1000C01C1AF8000000E0812089F808002A4649
:102F20000098C3B2B878514605F044F81DE09AF80D
:102F300000001CB11B2804BF022D01251C2803D250
:102F400031490B5C9D4205D0B0700721404616F018
:102F5000C3FC0AE09BF8000008285146404602D115
:102F600016F03EFF01E0FFF781FBD9F8040020E0F6
:102F7000264C207830B3264D286817F0CBFA08B3DA
:102F8000017903291ED1017A8A0611D5807AE17868
:102F9000C0F38112914202BF217900F01F008142EB
:102FA00006D1A078002801BF607800280121A17017
:102FB000286817F0A7FA05E0002014F0EDFC862041
:102FC00017F09CFABDE8F78FC80F0020680F0020AB
:102FD000D50F0020C00C0020BC0A0020540F002098
:102FE000E0070020780E002054420020D20F00207D
:102FF000E6420020880E0020C70F00208422002017
:103000008822002038C2010010C80100EC410020D5
:10301000AC0C00202DE9F84305460C46480413D4B7
:10302000A00024D4A0075CD460057ED4200500F164
:103030000681200700F13B81600040F1F6800FF02F
:10304000E3FE24F08044F0E016F09EFCDFF81C1450
:103050000F6D3FB1D7E90A1202F0E04201F00A0118
:10306000891849D016F05AFE24F48044DDE0BB48AC
:10307000DFF8FC73016841F080010160B878012835
:1030800004D1042013F048FE0020B87016F07CFC38
:103090000646042016F0A2FCDFF8D8130A68904216
:1030A00019D12A7EBAB1FA68AAB1DFF8C003806CE0
:1030B000002800F09780C16840F603020988914219
:1030C00006D0C06840F604010088884240F08A803B
:1030D00005F1140088E040F6C4120860C5E9042236
:1030E00084E006F049FDDFF88403006C002840F01E
:1030F0009D8024F0020498E0D7E90A65D7E90A1216
:10310000AA43B143C7E90A1216F008FEB8680028BE
:10311000AAD056EA0500A7D0D7F808C03869B7F991
:10312000301032462B46E0479EE716F02DFC054650
:1031300015F018F8002800F0B780CC48876B002FF6
:1031400000F0B280DFF828830420CB49002288F801
:103150001800C64815F0FFFF16F0FBFDC74816F033
:10316000D1FDC7480068006B8047C8F810000125F2
:10317000042088F8025014F067F8386990F8281095
:10318000C8F80400490703D5436A04210022984780
:10319000012010F0AFFDD8F8040045760CF086F958
:1031A000D8F8040081680B461A465B684BB11E884C
:1031B000A6F60306072EF7D805FA06F616F0830FD3
:1031C000F2D0537B03F0F003013353730023FD6807
:1031D00053602D88A5F60305012D00F28A80C8F8FA
:1031E00010309FE005F1100012F070F9304616F033
:1031F00095FD14F041F878B12E6A28466FF480717D
:1032000000224FF00073B0479848806B10B10FF068
:10321000FBFD01E044F00204EE6928460021002293
:103220004FF08063B04724F0005434B197482146F2
:103230002830BDE8F84316F03BBEBDE8F8838C4E5D
:10324000B078012804D1042013F066FD0020B0708E
:1032500014F012F838B170686FF4807100224FF0EA
:103260000073056AA847306950B185480068006B53
:10327000804732697168801A000BC8600020306195
:103280007A4D81490022284615F065FF02203076EC
:10329000286C20B17D480221283016F009FE0FF07D
:1032A000B3FD24F40064C0E716F053FD41E016F0CE
:1032B0006BFB054614F056FFA0B1DFF8B48198F817
:1032C000000000070ED498F9000000280AD46846D0
:1032D0000CF0E2F908B1009820B1DFF8B49199F848
:1032E000610048B316F035FD0FF08EFD24F00804A0
:1032F0009BE7034633F8385FA5B190F8445090F847
:10330000456005F0F00580F8445006F0F005013501
:1033100080F8455000255360C5634587507B00F019
:10332000F000507357480022C2610160012015F07F
:103330005FF924F4806478E700260127602E0FD01F
:1033400009EB0600817A31B18772407A07FA00F002
:10335000C0B213F0FBFC2036F0E700BFCC210840E0
:10336000032088F81800454816F0CCFC16F0F1FC54
:10337000444F3E4D0022786900207861F968F8607A
:103380002846444915F0E7FE3D480068006B804739
:10339000D8F80C10D8F82020411A02EB1130B0EB0D
:1033A000113F38BF4FF0FF3098F82410C8F82000C4
:1033B00021B1D8F80810B0EBC12F20D915F028F9A9
:1033C000B8B140F60900414621F83C0F0020488082
:1033D0004A7B02F0F00201324A730A7B02F0F002EB
:1033E0000A734860F8613960B8F83E0010F4406F25
:1033F000FAD00020C8F82000012088F8240011F03D
:1034000059FD2548002101600220002115F0F0F847
:10341000022013F081FC10200BF0A2FC98F80100B0
:1034200020B9D8F80400503016F03EFD1B488078D3
:1034300010B90D200BF094FC98F8250028B100205D
:1034400088F82500052013F067FC002088F8180094
:103450001348C8F81C000220B5F85610B5F85420DF
:10346000914208BF07200EF07DFE3DE7741F00204B
:10347000701D0020F423002041810100303E002017
:103480008C0100100010044049BD0000101F0020F6
:10349000E03A00206D2E01000000046084CC0100A1
:1034A00031B800002DE9F04F0D46280589B018D538
:1034B000DFF8F4633088FF280ED0C0B215F094FF17
:1034C000040009D0A079162117F014F8204615F051
:1034D00081FF204609F076F9FF20308085F40060F6
:1034E000DFE1E80504D516F012FA85F48070D8E122
:1034F000A80604D516F088FC85F02000D1E1E80785
:103500000CD516F039F930B100218160DFF89C0349
:10351000006800B1804785F00100C2E1280704D5AA
:1035200016F074FC85F00800BBE1E8060FD5002119
:1035300000220023069105920491039302910192C7
:103540000091022016F0D2FF85F01000A9E1A80733
:103550000FD5002100230691059104910393029158
:103560000191009101223C2016F0C0FF85F002007D
:1035700097E168074FF01E09CD4FDFF8388340F11F
:10358000D580CD4B187800210891079116F0D6FF11
:103590000446CA488178FF2904BF002014F0FCF9D2
:1035A000A07A15F021FF064698F8000096F82EA1A3
:1035B000002806F5947B72D0606D807A022818BFCF
:1035C000032807D138680D3016F08CFF10B9396820
:1035D000C81D07905946504616F0ACFF00283CD055
:1035E000606D807C3B68002818BF012804D1194613
:1035F000584616F09BFF04E05A465146184617F00D
:103600001DF8FF284BD019FB00F938684844062202
:103610005946C01D15F0FCFE386810F809104844E2
:1036200000F1010B41F0020AC01D08900AF00101EF
:1036300086F82E110622594606F5947015F0E8FE1C
:10364000B07916F071F8070004BF002014F0A4F957
:1036500094F8B90087F83A0021E05946504616F030
:103660003DFFE0B138685A46514616F0E7FFFF28A3
:1036700015D019FB00F9386848440D3016F032FFB8
:1036800058B9386848440D3016F02CFF002801BFA7
:1036900038684844417F012901D14AF0020A06F105
:1036A0002C005346017806914289120905920122A5
:1036B000718C0491C0880899029140080390CDF85C
:1036C00000B0079801900020B17916F00FFFD6F8EE
:1036D0009C017B4988420CBF00210121B07916F082
:1036E000F9FE7848B37902682C214B431344012238
:1036F0001A73B37904684B4323445A73B37904684B
:103700004B4323449A73B37904684B432344DA73DD
:10371000B379006811FB03F101440020087407200D
:10372000B17910F0ECFE85F00400BAE028060FD560
:1037300000210023069105910491039302910191C8
:10374000009101223B2016F0D1FE85F08000A8E018
:10375000E8045DD55C4938680C680D3016F0C2FE8F
:10376000002844D13868C11D0D3016F0AFFE3EE090
:10377000606D4178480704F13E0626D5307802286E
:103780001EBF03287078012830D17178386804F1A1
:10379000380216F053FF8246BAF1FF0F15D0386891
:1037A00019FB0AFA50440D3016F09CFE68B93868CF
:1037B0005044C11D0D3016F089FE38685044C11DBB
:1037C000062204F1380015F023FE3078022818BFD5
:1037D00003280BD138680D3016F084FE30B93868F4
:1037E000C11D062204F1300015F012FE2468002CE1
:1037F000BED13648D8F8042000784FF4805111F03B
:10380000DBFF10B18E2016F05DFE85F4805048E09D
:10381000A80505D516F030FA2D4901200860FEE70D
:10382000680504D516F08DFB85F4806039E06804E6
:1038300005D5812016F046FE85F4804031E0A904CC
:103840002ED5244C206810B1002014F0A5F84FF0BC
:10385000FF3020600020204C0DF048FE226852F816
:10386000201F684688471D491D4B086B4A6B009016
:10387000019202936B46C86A1A491B4A0791039248
:10388000ADF810002668194934680968184A1948C3
:10389000A0471949086003F07FFA85F4005000E062
:1038A000002009B0BDE8F08F1C240020480F002044
:1038B000680F0020880E0020D70F0020780E00200F
:1038C0004DE50110544200204C0F0020C70F00208E
:1038D0007C052043380F0020200F0020041D00200D
:1038E000599701001EFB008069970100604200208B
:1038F000EC0A0020503500201C0F00202DE9F0417B
:103900000446FF2818BF20282AD116F015F910F018
:103910001F0F22D0042013F067F808B1042016E02E
:10392000012013F061F808B1012010E0022013F02B
:103930005BF808B102200AE0102013F055F808B136
:10394000102004E0082013F04FF820B10820BDE853
:10395000F04113F081B814F01FF80020BDE8F081A9
:1039600013F07AF85FEA000814BFD8F80450002575
:10397000012C46F2A81740F6C4160BD0022C69D0D1
:10398000042C00F0B880082C00F01281102C00F0FC
:103990005981E2E7012013F027F800281EBFDFF865
:1039A0006C03006800281CBF8788BF00102013F03C
:1039B0001BF818B3102013F04FF8040002D066680B
:1039C0005EB900E00026022013F00EF828B10220B4
:1039D00013F042F8040018BF66686DB1012013F0BF
:1039E00003F8002818BF002E06D0B068C11BA868D5
:1039F00014F0DEFE00282BD02046AFE7022012F0A4
:103A0000F3FF38B1022013F027F8040014BF6668F2
:103A100000260AE0042012F0E7FF50B1042013F062
:103A20001BF8040014BF66680026002DE4D00120B6
:103A300040E1082012F0D8FF28B1082013F00CF85C
:103A4000040005D053E0012012F0CEFF002885D0FD
:103A5000404683E7022012F0C7FF60B1AC490A6814
:103A6000AC49D0690A7802EB82028318D88806FB39
:103A700000F707F51667042012F0B6FF38B10420EE
:103A800012F0EAFF040014BF6668002622E0082056
:103A900012F0AAFF98B1082012F0DEFF040002D055
:103AA0006668BEB900E00026012012F09DFF88B1D3
:103AB000012012F0D1FF040018BF66680AE001205F
:103AC00012F092FF50B1012012F0C6FF040014BFA3
:103AD00066680026002D8FD00220EBE0102012F047
:103AE00083FF30B1102012F0B7FF0400B0D060683F
:103AF000EBE00220A8E7042012F076FF58B18649D7
:103B00000A68864950690A7800EB0213988906FB17
:103B100000F707F51667082012F066FF98B1082035
:103B200012F09AFF040002D06668DEBB00E00026B7
:103B3000012012F059FFA8B3012012F08DFF0400FC
:103B400018BF66682EE0012012F04EFF38B1012048
:103B500012F082FF040014BF6668002622E01020E5
:103B600012F042FF98B1102012F076FF040002D04C
:103B70006668BEB900E00026022012F035FF88B169
:103B8000022012F069FF040018BF66680AE00220F4
:103B900012F02AFF50B1022012F05EFF040014BFA1
:103BA00066680026002D23D0042083E004204BE724
:103BB00016F050F908B1D0F89070042012F014FFFC
:103BC00038B1042012F048FF040014BF66680026D4
:103BD00032E0012012F008FF58B1012012F03CFF42
:103BE000002D044604D0082012F0FEFE00286ED1FD
:103BF00002E7102012F0F8FE98B1102012F02CFF0E
:103C0000040002D06668BEB900E00026022012F06F
:103C1000EBFE88B1022012F01FFF040018BF666897
:103C20000AE0022012F0E0FE50B1022012F014FF70
:103C3000040014BF66680026002DD9D0082039E0A2
:103C4000082001E7032016F007F908B1D0F89870B2
:103C5000022012F0C9FE38B1022012F0FDFE002D44
:103C60000446C5D01020BFE7042012F0BDFE38B1D5
:103C7000042012F0F1FE04000CBF0026666816E076
:103C8000082012F0B1FE18B3082012F0E5FE04007F
:103C900002D066685EB900E00026012012F0A4FEA2
:103CA00028B1012012F0D8FE040018BF6668002D6C
:103CB0009ED0102012F098FE002818BF002E97D03A
:103CC000B068C11BA86814F073FD002890D1BFE64E
:103CD000012012F089FEB0B1012012F0BDFE0400F7
:103CE00014BF66680026002D05D0102012F07CFE5F
:103CF000002818BF002E3FF47FAEB068C11BA86833
:103D000014F056FDE1E710209EE600BF6842002057
:103D1000500F0020D80F0020540F0020D90F002092
:103D20002DE9F84F0446DFF87803006808B907204A
:103D3000B4E1C07A012804D0042012F071FE0128F9
:103D400001D10C20AAE1DFF85C030078092818BF34
:103D50000A2804D00B281CBF0C280D2801D12120D3
:103D60009CE1002C00F0B9802078002818BF0128C1
:103D700007D1A078002818BF012804D0022818BF56
:103D8000032840F0AA806078002818BF012803D0DB
:103D9000022818BF03286ED1607A10F0050F6AD090
:103DA0000021002240F67B4343F6FD75677A012629
:103DB0008E4037422ED004EB02177889061FAE42A0
:103DC0003EBFBE89A6F1040CAC450DD2B04222BF65
:103DD000388BFE8AB04209D3F889861F9E423EBFC7
:103DE0003E8AA6F1060C9C4577D2864275D37E8A20
:103DF000B6F5FA7F71DABF8AA7F10A0C40F6774E62
:103E0000F4453FBF761C40007043B0EBC70F64D24F
:103E1000521CD2B2491CC8B20228C7DDA04F386874
:103E200026464661717A06290CBF012000209E4972
:103E3000087002F07BFC040008BF09200CD0396830
:103E4000A0790874F11CB278402009F009FA20B179
:103E500020460BF085FA0B2020E104F16101204699
:103E600016F02CFB04F12C0898F80E00012803DC56
:103E700020460BF075FA30E039687078DFF82CA234
:103E8000DFF82CB2DFF82C928B4D88727078002806
:103E900018BF012807D1C00754BF594651463B6897
:103EA0000622181D3BE028680D3016F01BFB30B9C8
:103EB00099F80000002804BF3178002913D17078E8
:103EC000C10754BF5946514616F008FB28B1707817
:103ED000C10754BF5946514601E01220DEE0386860
:103EE0000622001D0CE0296838680622C91D001D45
:103EF00015F08EFA71480268106829680622C91DFB
:103F000015F086FA7078296800F001000870707862
:103F1000C10754BF5946514628680622401C15F077
:103F200077FA307888BBB07884F82E0104F5947A5B
:103F30000622F11C504615F06BFAB1782868F21C85
:103F400001F0010116F07AFB8346BBF1FF0F1CBFA5
:103F500099F80000002818D0B07840F0020084F8EA
:103F60002E011E212A6811FB0BFB02EB0B01487F7F
:103F700058B901F10D0016F0B5FA30B92868584467
:103F8000C11D0622504615F043FA16F093FAA062BE
:103F900015F060F8606206F11001DFF80CA19AF8E4
:103FA0000000000106F114030A5AA8F80620195A65
:103FB000A8F80A103044428AA8F80820022238687B
:103FC000417C88F80010002088F80220A8F804003E
:103FD00015F048FE0C2290FBF2F20C2101FB1200BE
:103FE000401D88F80F0004200AF0B8F83968344AF8
:103FF000086082613349416033494161062011F014
:1040000098F939680120C872A07912F0B3F899F8CC
:104010000000002801BF386841690A78012A0DD1E3
:10402000807A02280AD1296801F10D0016F05AFAA7
:1040300020B92648417941F004014171194C20789A
:10404000C8B999F8001049B12148006816F02EFA55
:1040500038680068816941F4802181613868007C9A
:104060000CF08CFA062020700122002110F047FA93
:1040700015F036FF11E03A68117ED06852699AF85F
:10408000004002F10C03240140F6C4121B5B02FB4A
:10409000030000F5166009F01FFE0020BDE8F28F56
:1040A000540F0020C80F0020D90F0020480E002018
:1040B000400E0020880E0020680F0020744200206F
:1040C00002008080040C0020C5240100BC0A0020EE
:1040D0006C0F00202DE9F84785B004468A4611F898
:1040E000010B00272C22072804F5A47504F16608AB
:1040F00004F1FD06DFF86C93DFF86C3300F070819B
:10410000092810D00C2800F033810E280BD00F287E
:104110000DD0112800F0DE801A2800F0F0801B2856
:1041200000F0188179E120460EF09AFF75E13378AE
:10413000980705D40F213177204616F02FFA06E1B3
:1041400098F81000012804BF98F811000F2811D02A
:1041500098F8150010B198F811201AB198F81C20A1
:10416000012A09D1580705D40F213177204616F0CE
:1041700015FAECE0232268E018B198F81100012844
:1041800004D004F18607B87A012809D1580705D46C
:104190000F213177204616F001FAD8E02A2254E0A8
:1041A00008784A7800EB02232B808878CA7800EBE5
:1041B00002236B8008794A7900EB0223AB8088796F
:1041C000CA7900EB0223EB800A7A2A72487A8A7A4B
:1041D00000EB02236B81C87A0A7B00EB0223AB81E0
:1041E000487B8A7B00EB0223EB81C87B0A7C00EBD7
:1041F00002232B82487C8A7C00EB02236B82C87CE2
:104200000A7D00EB0223AB82487D897D00EB012211
:10421000EA8204F5AA70049069890391287A0290D1
:1042200021890191E8880090AB886A882988204616
:1042300016F0B0F9B0B13078410705D40F203077CF
:10424000204616F0ABF982E01E220F21204616F020
:104250009DF9E8880090AB886A88A179002010F069
:1042600053F8BBE06888B8800022A988F980022151
:10427000E888388139707A80A08EC01DA8F81E00A9
:10428000618EB888B0EB510F02BFF888A18E8842CA
:1042900002BF3889E18EB0EB111F19D098F81500D4
:1042A00000281CBF98F811001A2804D00F2188F8A4
:1042B0001A10FE2181E0FC21204615F00DFBE88854
:1042C0000090AB886A882988A07916F05BF985E0B0
:1042D000002172E0087828761A284978697640F03B
:1042E0009C801E68A179701C51434754A1791868BD
:1042F00012FB01F281180F71A179687E86E094F8B3
:1043000006C01868097812FB0CFC604400F1210516
:1043100001F01F062878890938B16878C840C007BD
:1043200003D594F89601042805D120221A212046AD
:1043300016F02CF952E0EE701868A37912FB03F224
:104340000244204682F82310002115F093FD002836
:1043500044D13AE0A179186851430144C88800B9B2
:104360004F70A179186812FB01F281180F7135E0C6
:10437000307C01280FD011F8012BF27404F58970FC
:10438000022216F0FBF80146022204F58A7016F0AC
:10439000F5F80120307498F8060020B93D2101207D
:1043A000F176B0761AE0B07C002804BF707C00285B
:1043B00014D198F8001021B90C21204615F08CFA80
:1043C0000CE0204616F0C6F830B999F800004FF41A
:1043D000804109F01DFC01E00120B074012720E0BC
:1043E00008780F2815D01A2817D1A07919685043DA
:1043F00008444770A0791B6812FB00F298180771F7
:10440000B07800F0FB00B0701A20A17907F01BFC17
:10441000E4E7307800F0FD0030705146204616F099
:1044200041F898F811001A2818D198F812001828A5
:1044300018BF002803D0152818BFFC280ED198F803
:104440001060204616F07EF8012E03BF1A2088F86F
:104450001A00FD211A21204615F03EFA384606B012
:10446000BDE8F087C70F0020544200202DE9F04F2F
:104470008FB00746189800250193002A8DF8200078
:1044800000F09C810AA80E464FF0FF3E4FF0200B33
:10449000002400F1100CCDF800C0114611F8010BFA
:1044A00025280E910CD0002800F08481022EC0F047
:1044B0001981013E002F00F0148107F8010B11E172
:1044C0005378901C0E902D2B07D14FF0010AD01C71
:1044D00093788DF80DA00E9003E04FF0000A8DF850
:1044E0000DA0302B05D10121069110F8011B0E9073
:1044F00001E0194606952A29CDF810E0029517D15A
:10450000019D29680A1D2A60D1F80080CDF8088035
:10451000B8F1FF3F10F8011B0E9007DC4FF0010AC5
:10452000C8F100088DF80DA0CDF80880002511E035
:104530004FF00008A1F13002092A08D808EB8802E0
:1045400001EB4201A1F1300810F8011BF2E70E90D7
:10455000CDF808802E2914D10495024612F8011BCB
:104560002A290E9210D1019D29680A1D2A60002572
:10457000096821EAE179CDF81090417802300E9077
:1045800015E04FF0FF3912E04FF00009A1F13000C3
:10459000092808D809EB890001EB400012F8011B3B
:1045A000A0F13009F2E710460E92CDF81090302BB2
:1045B00041F0200306BFCDF81880424600226C2B44
:1045C00006D101218DF80C1010F8011B0E9001E0AE
:1045D0008DF80C50CDF81CC00AAB692905950993DC
:1045E00001D0642916D1019B1868011D19609145FD
:1045F0006FF00903C8BF4A460168604606920DF095
:1046000031FCDDF800C04FF0FF3E0990ACEB00013B
:10461000059129E075290AD0A1F16F03092B64D80F
:10462000DFE803F0058C6F6FA96F6F6F6F05019D59
:104630002868031D2B6078294FF0080308BF10235A
:10464000752908BF0A239145C8BF4A4601686046DC
:1046500006920DF007FCDDF800C04FF0FF3E099018
:10466000ACEB000105910025A8EB0100BAF1000FA9
:1046700002900FD109E0022E05D3013E17B107F8D1
:1046800001BB00E00027013801340128F3DA059965
:104690000138029009980A465AB1022E06D3013E0B
:1046A0001FB1037807F8013B00E00027013A013011
:1046B000F2E70C44BAF1000F0990CDF814E012D0E3
:1046C000029801280ADB022E05D3013E17B107F834
:1046D00001BB00E0002701380134F2E70138029005
:1046E00001E0002701340E9AD7E6632909D1019A27
:1046F0001068011D11600121006805918DF82800E6
:10470000B1E70138022E0E9052D36FF0004086427E
:1047100038BF3046B14538BF09F1010004900EA9F9
:10472000019A02AB05F0B4FCDDF800C09DF80DA0C5
:10473000DDF8088005994FF0FF3E94E7019A1023B9
:104740001068011D11600821082206919DF82010B3
:104750000029016860460DF085FB4FF04001DDF84F
:1047600000C04FF000054FF0FF3E00F8011DACEB1C
:10477000000109904CE7019A1068011D11609DF835
:104780002010006800290F49002808BF084609903A
:1047900015F08DF8814501464FF0FF3E38BF494680
:1047A00019F1010208BF0146DDF800C000252FE71E
:1047B000002158E70FB100203870254628460FB079
:1047C000BDE8F08FE4CD01002DE9F84F054605F175
:1047D0004C0AE87D9AF80010DAF8047081424FF034
:1047E0000008C0F08E8105F1280407F1900907F157
:1047F0007306C34640F08C80A87F7075E97FB17561
:10480000DAF808205278930710D5EA7FD30604D54A
:10481000C01E707501F0EF01B175C7F874B086F86D
:1048200000800022B17D01F0FE0165E1910608D40F
:10483000E08B00B1E07E3076E08B00B1206AC9F8F1
:104840000000DAF808004178CA070DD5E08B00288F
:104850001CBF206A002807D0C9F80000A17EE08BA9
:10486000814238BF08463076E87FC1060CD5B86B68
:10487000217800EB8100B863B86BA98CA63100EBFE
:1048800081007867022002E0C7F874B00020307021
:10489000DAF80800417811F0030F22D1007815F002
:1048A000DDFA5FEA00081CD098F8B000032809D1AF
:1048B000E87F810615D440F02000E877B07D40F015
:1048C00020000DE068B9E87F81060AD500F0DF001E
:1048D000E877707DA0F112017175B07D00F0DF0006
:1048E000B075E97F002201F0FC01284608F0DEFBEC
:1048F000B8F1000F36D0E87F810633D598F8B000C4
:1049000002282FD141462846BDE8F44F15F0B4BA2D
:10491000E87F81060AD500F0DF00E877707DA0F11E
:1049200012017175B07D00F0DF00B075DAF8080093
:104930004178C80717D5B07D717D00F0F700891E5A
:1049400001F03F0182075CBF891D40F00200420672
:1049500044BF491E00F0BF00B0757175C9F800B0C2
:1049600086F81880CDE09AF80020E87D101A8907B3
:104970005FFA80F840F18180B8F1010F3ED1B86B49
:10498000A98C00EB8100B863A87F00F03F00A877F6
:104990007075E97FB175DAF8082053785A0703D5A6
:1049A000801F707501F0FD01B1750023717D97F8CE
:1049B0004000E27E01F03F018A18C0F38001521CE2
:1049C00000F0030015F06AFD00F59B70A8841E211D
:1049D00080B290FBF1F0B17D82B201F0FE01284679
:1049E00008F064FB86F800B0E08B00B1E07E307622
:1049F000E08B00B1206AC9F8000082E0B86BA98C96
:104A0000B8F1020F00EB8100B86326D1E87FC1073F
:104A100006D5707D811F7175B07D00F0FE00B07508
:104A20000023717D97F84000E27E01F03F018A1873
:104A3000C0F38001521C00F0030015F02FFD00F5BB
:104A40009B70A8840022B17D01F0FE01284608F089
:104A50002DFB607F07F140014883607F401CA0EB85
:104A60000801C8B201281CDDB96BAA8CA63201EB83
:104A7000820179670221317014E0B86BA98C00EBD8
:104A80008100B863607FA0EB0801C8B2E97FCA0665
:104A900007D5B96BAA8CA63201EB82017967022196
:104AA000317070B395F81F80A97FD9F80020E37E9C
:104AB0001A44C9F8002028F00108DAF808205378D1
:104AC0005A0748BF28F00208012807D1207F307616
:104AD000C7F874B028F0100886F800B001F0C004E0
:104AE000404615F0D7FC00F03F002043707586F873
:104AF0001680002208F0FC012846BDE8F84F08F0B7
:104B0000D5BABDE8F18F70472DE9FE4F0422FF2191
:104B100001A814F073FCB84EB078FF284FF00008DD
:104B200000F0678114F060FC0546B07814F0FCFDDD
:104B3000064605F217100178012908BF417800F0F8
:104B4000128105F5927BBBF80E1019B19BF80C0091
:104B500009F05EF8082010F0ECFB6889288105F167
:104B6000740A9AF80E00022813D1307FC0F3C000F7
:104B700068B1E88E0009009000206A8EAB8EA9799A
:104B8000520815F083FC307F00F0E70030778AF898
:104B90000E8095F89201022808BF85F892819AF854
:104BA0001C0002280DD18AF81C8015F035F9012867
:104BB00007D1924BA87919680A5C05F161010BF0E5
:104BC000B1F9B6F81EE08E4CA17AE779237BE27A40
:104BD000607B01EB07097744F7839944378C94F89D
:104BE00008E0774437849144778C94F809E077445F
:104BF00077848144B6F824C08C44A6F824C0F78C8E
:104C00003A44F28405F58D77328D1344728D3385E5
:104C100012187285B08D22788218B285F08D627874
:104C20008218F285308EA27882183286708EE278F1
:104C300082187286B08E22798218B286F08E6279DE
:104C40008218F286308FA27982183287B888401C89
:104C5000B8803A884A443A80788808187880DBF827
:104C60000000E0B1674B95F806E01B681C2203F1D9
:104C70000E0C12FB0EFE0E331CF80EC030F81CB0EA
:104C8000CB4420F81CB095F806C012FB0CF29A5CDD
:104C900000EB4200B0F84A30C918A0F84A1012F0F0
:104CA000DBFBE079002804BFE07A002805D1207BF7
:104CB000002804BF607B002825D0F07E0021C009B9
:104CC000C346F1810BD0307F10F0070F04D1411C97
:104CD00061F30200307702E0A87915F0C9F829895C
:104CE000E88985F810804118A9810122A979082056
:104CF0000FF005FC444948690078810737D5A07B4F
:104D0000802834D034E0A979002208200FF0F7FB86
:104D1000307F10F0070F02D1F07EC00903D0A879D0
:104D2000002115F0A5F8A07A40B1287C4FF0010BC6
:104D300008B1E889A88185F8108004E0F888401C53
:104D40004FF0020BF880A8892989814206D0884259
:104D5000D0D2081A41F2AB018842CBDA3888002859
:104D60000CBF3E210821284613F02AF841E081209B
:104D70008AF80000254991F8200018B12946012041
:104D800015F066F8284607F02FFC02281DD19AF886
:104D90000700022805DB01AA1D4928460EF09AFCEF
:104DA0008046284615F06EFB012822D05FEA0800F5
:104DB0000DD0424601A928460FF0A4F838B928467C
:104DC00007F012FC012802D113E0012811D00121C3
:104DD000284615F053FB2A464946584607F068FD19
:104DE00003F09CFD012804D0284615F099F815F031
:104DF00077F8BDE8F78F00BF780E00206C420020E6
:104E0000980C0020980E002038C20100E83F0020D6
:104E1000D42300202DE9F04F89B0A24E0546A24FC1
:104E200030780328387040F0AD8000203070387042
:104E300002AC204614F0A8FF2046002113F09EFF8C
:104E40009A4CB8602E21204614F03EFF4FF0FF3000
:104E5000A0822061E06012F055FC0020294610F08D
:104E60004DF807F11001F86014F06AFFD7E9051258
:104E70008F4DB1FBF2F0C0B2022828BF0220B2F57C
:104E8000005F207028707BD1B1EB403F78D3F96888
:104E9000002975D04FF6FF7100274FF088586FF04A
:104EA000030B618083496160C0B287426DD2FEB25C
:104EB000002108AA0423304614F086FB07EB4700C4
:104EC00004EB800A0898D14600F47C0129F8160FFB
:104ED000B1F5402F04D000F07F41B1F1164F3ED123
:104EE000C0F301418AF819106FF0FD0151FA80F208
:104EF0001021022A31D3C2B27E2A2ED003A811F08B
:104F00007BFB304600214FF088524FF400534FF4A2
:104F1000005514F059FB1BFA85F5A8B250F808109B
:104F20004A1C01D10328F6D801220126D3B2042B52
:104F300006D8CBB2FF2B18BF16460132090AF5E797
:104F400040F808105D480399006842685C48904743
:104F500055FA86F199F80000554DAAF81C10C0B218
:104F6000702809D0782803D0FE2803D07C2804D1EB
:104F7000E77002E0A77000E027712878013793E717
:104F80000120307009B0BDE8F08FE278FF2A03D02D
:104F9000DFF81481012528E02279DFF80C81FF2A4F
:104FA00002D0E270022520E0A1784A1CD1B29142E1
:104FB0000CD1B1FBF0F202FB101202EB420004EB49
:104FC0008000808B0028ECD1FF20A07000250020FD
:104FD000E5700AF02BFE98F8001008437E2188F84F
:104FE0000000002011F064FEE278A078FF2815D1BF
:104FF0002F49012050FA82F00978B0FBF1F202FB50
:105000001100A0700AF012FE98F800100843FE216B
:1050100088F80000A07811F04BFEE2782648627014
:105020000570D0B2400050FA82F0022D04EB8000EF
:10503000818BE18028D0012D2BD103AD002788B2D0
:10504000182826D30739D0B22A4689B20BF07AFE47
:105050009DF81700400717D5E088BDF81A10E678CC
:105060002A4603230097401A073881B2304605F0DC
:10507000D3FCE27820B9BDF8181009B196420BD0E4
:10508000964206D0E188DAE701206071002000F046
:105090006BFD98F8000075E79DF81C000FF020FDEF
:1050A000F7E700BF0723002010220020903F0020D8
:1050B000EF420020FF000020F0420020D801001045
:1050C00000400340F8B5144600254FF48067DFF830
:1050D0009862C21B84B006F1880337D0921E3CD080
:1050E000521E44D0521E4AD0521E50D0521E54D08E
:1050F000521E00F07A80921E00F07C80D21E00F0DA
:10510000AC80521E00F0B780921E00F0C080521E8C
:1051100000F07B80521E00F0C180521E00F0CF8054
:10512000521E00F0D280521E3ED0521E56D0521E49
:105130004BD0921E00F0DE80921E00F0E280521EE4
:1051400000F0ED80521E00F0F98000E101290FD13E
:105150002078022817DC707003E1012908D120783B
:10516000022810DA0028B070F6D1B074E3E001290B
:1051700040F0EB802078052805DAF070F1E0012995
:105180006CD12078022880F2E0807073E9E0102969
:1051900064D110222146754814E001295ED120789F
:1051A000022863DA3071DCE0012957D12078022827
:1051B0005CDA00287071F6D00120F074602206F1EC
:1051C0002801184614F024F9CBE00129FCD12078FD
:1051D000022802DAB07114F0D7FAC2E001293DD1F9
:1051E0002078022842DAF072BBE0012936D120781B
:1051F000F073B6E0002931D115F0DCF910B9FBF7F6
:1052000023FF1DE00120F075ABE0072926D106221F
:10521000611C02A813F04EFF00950023217801AA1B
:1052200002A809F0C9F9B0B9F07A10B915F0C2F9BD
:1052300010B1F07A012808D19DF80400FBF718FF9F
:105240000546502013F0F4FA1EE0716A9DF8042020
:105250000120885485E0342583E0012975D1717CD3
:105260002078022903D0C11F0A2902D36DE010283B
:105270006BD1307475E0012967D1B07D2178B175AB
:10528000002808BF01296CD1FBF76AFE69E00129FB
:105290005BD12078052858DA307562E0012954D1B5
:1052A0002078022851DC00284FD07074022803BFF8
:1052B000102030740120002015F0DCF851E00129A5
:1052C00043D1207813F0C6FC4BE0707900283CD124
:1052D000602908D1002C38D060222146184614F0ED
:1052E00097F8012004E001292FD1002C2DD020783F
:1052F000F07436E0012928D13CB320781C490870AD
:105300002FE011BB15F056F930B9FBF745FF054604
:10531000502013F08DFA24E00120307621E001299D
:1053200013D12178022910DA012904BFB0780028AE
:1053300016D0B174084614F02FFA12E0012904D1F6
:1053400020780228B8BF70750BDB182509E00F28FC
:1053500006DA022904D1218810F0B2FB054600E0EC
:105360000225284605B0F0BD741A00207C400020BC
:10537000EA42002086492DE9F043864C864E207093
:105380000B22002008600D23844840F22B2102707C
:105390004380818085B082480660B77E814807706F
:1053A000FF2FF17E4170327F8270737FC370B57FB3
:1053B0000571F67F467108BFFF2914D1FF2A08BF87
:1053C000FF2B10D1FF2D08BFFF2E0CD176490A7894
:1053D00002704B7843708A788270CB78C3700A79F8
:1053E00002714979417171490278714D714E724F64
:1053F0000A7043784B7082788A70C378CB700279D8
:105400006E4B0A7140794871FF2028706870A8704F
:10541000E87028716871002069490880F06B69495B
:10542000407808706849F06B007808701A886748FF
:1054300067490280F06BC06C08606649F06B90F8B9
:105440003C0008706449F06B90F83D0008706349B7
:10545000F06B90F864000870F06B41690A7960495C
:10546000501E08705F49F06BC0783870F06B80692F
:10547000086008B912F090FAF06B5B49C0690860E7
:1054800008B912F089FA59485949006D086008B9FD
:1054900012F082FAF06B816D56480C2213F0B8FFBF
:1054A00014F0E4FFF06B5449006A086008B912F088
:1054B00073FAF06BDFF84481406AC8F8000008B95D
:1054C00012F06AFAF06B4E49806A086008B912F06F
:1054D00063FAF06B006E00B101200DF036FB00F0B6
:1054E000B3FD07280AD105F027FB20784FF480414F
:1054F00008F08EFB002012F04FFA46E007F087FF1D
:1055000040490868804781460CF062FED8F80010D8
:1055100008688047684614F0AFF8D8F800300420D7
:105520008DF80000694653F8042F00209047364953
:1055300008600FF04DF9F068344A01883878344B30
:10554000014311804846196888470C21314814F0FE
:10555000DBFC284614F086FF14F080FF2E48002163
:105560004FF6FF72016082808171F06B90F85C10E1
:105570002A48006814F0D0F80121FF2014F060FCE4
:1055800020784FF4005108F043FB05B0BDE8F083EC
:10559000380F0020C70F0020B64F0050700E0020BB
:1055A0003C0F0020400E0020E8120050500E00205A
:1055B000480E002038C20100C40F00201E24002025
:1055C0009E0F0020C60F0020D40F0020D0420020E4
:1055D00058420020E4420020E5420020E242002040
:1055E000CB0F0020200F0020240F0020041D0020DE
:1055F00060420020F8410020280F00202C0F0020DE
:10560000300F00208422002064420020A00F0020E0
:1056100088220020FC0D0020800E00207442002013
:105620002DE9F04F8DB0044600209A4616460F46ED
:10563000CDE90B00CDE909008A48856880460DF068
:105640001BFB1C2803D00DF017FB1B281BD1308837
:1056500040F60201884218BFB0F5C15F03D1F07B6C
:10566000022810D93EE043F6070188420BD196F894
:105670002400032807D330697B4940F0806020F084
:10568000604088422ED100206FB366B3387825FA87
:1056900000F0C00726D03046002114F0F1FB73481B
:1056A000C4E90176006880B109A800900CA90BAA92
:1056B0000AAB304605F078FC0B980B214FF6FF72D1
:1056C000502312F005FFFF280CD014F05DF9684F4D
:1056D00006467878012802D840B1012070E03046B3
:1056E00014F01CFB00200DB0BDE8F08F05F0D0FBDE
:1056F00060480DF10409016841F0020101605E4853
:10570000C8F80000484613F0AFFFDFF870B15D49FC
:105710004A469BF801009BF80050039058482830F7
:1057200011F05CFA584859494A4611F057FA484670
:1057300013F022FFDFF85881564A19214B46029593
:10574000404610F0FBFA544A08F11C001A214B465F
:1057500010F0F4FA5148524914F0A2FA5148524953
:1057600014F09EFA5148006810F4402F06D0504AB9
:1057700007F128000421002312F0BEFC9BF8020070
:1057800010B10D2009F034F908F1400013F0EEFCDF
:1057900008F1380013F0EAFC464900200722387669
:1057A000B8843862386181F860200521C7E90210A9
:1057B0004149F96138700420002112F019FF78780E
:1057C0002F4941F8204001307870304614F0A6FA95
:1057D000BAF1000F02D0DAF8000008E00DF1040A77
:1057E00036492022504614F06DFB4FF0FF30DAF8B6
:1057F0000420BAF81010DAE90635002AB2FA82F667
:1058000008BF40F6C4122060012076096183256339
:1058100060762B4826764FF4FA766261C4E903621B
:10582000C4E90700C4E90903DAF80C0000B12062FA
:10583000DAF8140000B16062DAF8080000B1E06143
:1058400004F13800C82114F03FFA04F1500000219F
:1058500012F0FEFE1B4904F1B80014F021FA2046B4
:1058600041E700BFCC2108400F0000059C23002029
:10587000701D002000200940110000E084CC0100D0
:10588000101F0020CD8A0100B83E00201DE200005C
:10589000741F00206D2E0100B1170100743E00201E
:1058A0001D810100303E0020798A0100B44F005074
:1058B000F1450100E03A002031B8000070C6010057
:1058C000299F0100599D01002DE9FF47A14801785A
:1058D00006294FF0010840F037819F4E9F4F3068F6
:1058E0009F4C016801F108054FF0FF09297801F08C
:1058F0000F00072802BFA8788309012B40F083809E
:10590000002800F08080E878C30707D50622291D0B
:10591000684613F07DFD2878C0F38019E978880780
:1059200034D5062201F001012B1D5143194402A870
:1059300013F06EFD2878C00902A914F0FBFD0028C1
:105940002068807A00F08080022818BF032876D172
:1059500038680D3014F0C6FD002870D1386800F1A9
:105960000D0102A814F0D2FD002863D020680622A1
:1059700002A9001D13F04CFD707940F00400707115
:105980000622386802A9C01D13F042FD4846FF28D0
:105990006AD0694614F0CEFD1E25002800F09A80DA
:1059A0003968684614F0C2FD2268014650690078E3
:1059B000FF2974D0002815FB01F556D1107C13F097
:1059C00013FD814699F82E11022918BF032901BF42
:1059D0003868425D01F001018A4245D121684B6976
:1059E00040190622D91C401C13F050F900283BD066
:1059F000707940F0080070710622694609F59470CC
:105A000013F006FD45E011F00F0F1CBF01F00F026F
:105A1000012A29D10622A91C684613F0F9FC28782E
:105A2000C0F3801900F00F000128AFD1062205F164
:105A300008017CE73068016800220A7186E030685E
:105A4000016800230B7181E0022818BF032805D1EB
:105A500038680D3014F046FD002897D12068807A10
:105A6000002818BF012891D069E0706939684A5D43
:105A70004919491C083814F0EDFC3A490A7890425B
:105A80005DD07069396849196A46C91D083814F033
:105A9000DDFC3868401906226946C01D4DE000282B
:105AA0004DD1107C13F0A0FC074620684069827835
:105AB000914544D1C11C0622684613F0E7F800283E
:105AC0003DD0707969F3C30070710622694607F50D
:105AD000947032E021684A69107880BB087C13F02A
